:1000000002308A001B2A0000FF00030E8301A100BA
:100010007F08A0000A08A7008A01A00E0408A20019
:100020007708A3007808A4007908A5007A08A6003C
:10003000831383128C308400001C20280C18312874
:10004000220884002308F7002408F8002508F90096
:100050002608FA0027088A00210E8300FF0E7F0E73
:100060000900061C602810308606A80A0319A90A90
:100070002908033C03184A28FF3A031D432828088F
:10008000373C03184A2820308606AA0A0319AB0A0F
:10009000A901A801AB08031D51282A081D3C03181B
:1000A0005728A901A801AB01AA012C14AC10763085
:1000B0008F0098308E0083160C14C03083128B048E
:1000C0000C108A112028AE010130AD00AE08031DCE
:1000D00075282D08803C031C752855300C1E6E2891
:1000E0009900AD0A0319AE0A662808001E300C1EDE
:1000F0007728990000300C1E7B2899000C300C1ECC
:100100007F28990040300C1E8328990000300C1E77
:100110008728990006300C1E8B28990000300C1E91
:100120008F28990001300C1E9328990064300C1E12
:100130009728990003300C1E9B28990001300C1E53
:100140009F28990060300C1EA328990077300C1E60
:10015000A728990024300C1EAB2899000800A9019B
:10016000A801AB01AA012C14AC1008002F308400A8
:10017000831300080319C9280630F800F701F70BAC
:10018000BF28F80BBE287B30F700F70BC528800B83
:10019000BC280800061686160B138B138B1BCD2864
:1001A00083160C148312AF200830AE00FA30AF0073
:1001B000B620AE0BD6280612861208001E300C1E82
:1001C000DF28990000300C1EE32899000C300C1E2B
:1001D000E7289900D1300C1EEB28990000300C1E46
:1001E000EF28990007300C1EF328990000300C1EF0
:1001F000F728990001300C1EFB28990000300C1ED6
:10020000FF28990003300C1E0329990000300C1EB2
:100210000729990001300C1E0B29990060300C1E33
:100220000F29990000300C1E1329990072300C1E02
:1002300017299900D5300C1E1B29990008000616B5
:10024000632076206320DE201E300C1E25299900B5
:1002500000300C1E2929990010300C1E2D29990000
:1002600001300C1E3129990000300C1E35299900EF
:1002700011300C1E3929990000300C1E3D299900BF
:1002800001300C1E4129990000300C1E45299900AF
:1002900001300C1E4929990001300C1E4D2999008E
:1002A00000300C1E5129990032300C1E552999003E
:1002B00005300C1E5929990001300C1E5D2999004A
:1002C00005300C1E6129990000300C1E652999002B
:1002D00002300C1E6929990000300C1E6D2999000E
:1002E00000300C1E7129990001300C1E75299900EF
:1002F00001300C1E7929990045300C1E7D2999008A
:1003000000300C1E8129990078300C1E8529990037
:1003100013300C1E892999000830AD00FA30AF0067
:10032000B620AD0B8E2906120800861663207620B3
:100330006320DE201E300C1E9B29990000300C1E0D
:100340009F2999000C300C1EA329990001300C1E26
:10035000A729990000300C1EAB29990007300C1E0C
:10036000AF29990000300C1EB329990001300C1EF2
:10037000B729990000300C1EBB29990008300C1ECB
:10038000BF29990060300C1EC329990001300C1E52
:10039000C729990063300C1ECB29990000300C1E30
:1003A000CF29990011300C1ED32999000E300C1E54
:1003B000D72999000830AD00FA30AF00B620AD0B58
:1003C000DC2986120800AD01831685148312851C72
:1003D000EA292D14061FED29AD14861FF0292D15CD
:1003E0002D0B042A83160512831205168616083073
:1003F000AE00FA30AF00B620AE0BF9298612831694
:10040000051283120512CA202D08033C031D1A2A67
:10041000831605128312051606160830AE00FA3050
:10042000AF00B620AE0B0F2A0612831605128312F8
:100430000512CA209A2A840183131F3083050A30CB
:1004400083169900A63098009030831298000730E8
:100450009F0083160108C73908388100B530831220
:1004600090000030F8009200003083169200831252
:10047000970107309F008316050885001030F700AC
:10048000F70B402A000083121F080C13F730650099
:10049000CF3066000B138B138B1B4B2A0A3083164D
:1004A0009900A6309800831263207620CA20831614
:1004B00005158312051D5E2A1F21CA208316851586
:1004C0008312851D652A9521CA20061C882A2C1CAA
:1004D000862AAC1C842A0B138B138B1B6C2A0616E2
:1004E000861695216430AF00B6201F212C10AC1069
:1004F00006128612C0308B0483160C1476308312D9
:100500008F0098308E00852AAC14872AAC10892A77
:10051000AC10AC1C932AC830AD00FA30AF00B62046
:10052000AD0B8D2A942AAC10831685168312851E76
:0C0530009A2AE329061CAF20572A63001A
:02400E00023F6F
:00000001FF
;PIC16F628A
;CRC=D288  CREATED="31-mar-12 07:01"
