:020000002A29AB
:10000800FF00030E8301A7000A08A8008A017008F0
:10001800A4007108A3007B08A2007C08A1007D0849
:10002800A000F1018B1C1A280130F1007108013A77
:10003800031D5D2885104D30FB001930FC004F3042
:10004800FD00FD0B2528FC0B2528FB0B25280000AF
:100058000000F101061C32280130F1007108013A54
:10006800031D5D284D30FB001930FC004F30FD00AA
:10007800FD0B3C28FC0B3C28FB0B3C280000000037
:10008800F101061C49280130F1007108013A031DED
:100098005D2805149930FB003130FC00A230FD00CA
:1000A800FD0B5428FC0B5428FB0B542800000510AA
:1000B800FA2098308B002408F0002308F100220869
:1000C800FB002108FC002008FD0028088A00270EF4
:0800D8008300FF0E7F0E0900FA
:1000E00083160313981876280000702883122A08B4
:0400F000990008006B
:1000F400013083120313A9005530AA007020290887
:0C010400803A03198728A90A7E28080009
:100110001E3083120313AA007020AA0170200C3035
:10012000AA0070204030AA007020AA01702006307A
:10013000AA007020AA0170200130AA00702064304B
:10014000AA0070200330AA0070200130AA0070209D
:100150006030AA0070207730AA0070202430AA00F6
:040160007020080003
:100164001E3083120313AA007020AA0170201030DD
:10017400AA0070200130AA007020AA01702011305A
:10018400AA007020AA0170200130AA007020AA01E0
:1001940070200130AA0070200130AA007020AA014A
:1001A40070203230AA0070200530AA00702001307F
:1001B400AA0070200530AA007020AA017020023025
:1001C400AA007020AA017020AA0170200130AA00A0
:1001D40070200130AA0070204530AA007020AA01C6
:1001E40070207830AA0070201330AA007020080014
:1001F4007A200330FB008A30FC005530FD00FD0BF3
:100204000129FC0B0129FB0B0129000000008820B7
:100214000330FB008A30FC005530FD00FD0B102933
:10022400FC0B1029FB0B102900000000B220080071
:10023400831603139816903083129800831686143D
:10024400061183128C1E29291A08F000232908009C
:100254000F308316031385000F3086008312850147
:100264000A308316990018151A210330FB008A30CE
:10027400FC005530FD00FD0B3D29FC0B3D29FB0B1B
:100284003D2900000000F101051D4A290130F1005B
:100294007108013A031D5D2906171A30FB005E3010
:1002A400FC006E30FD00FD0B5529FC0B5529FB0BA2
:1002B400552900000613F101851D62290130F10062
:1002C4007108013A031D752986171A30FB005E3048
:1002D400FC006E30FD00FD0B6D29FC0B6D29FB0B42
:0E02E4006D29000086130000000045297829CE
:02400E00182177
:00000001FF
